:020000040800F2
:100000000080002035130008C1120008CD1200083E
:10001000D5120008DD120008E512000800000000FB
:10002000000000000000000000000000ED120008C9
:10003000F912000800000000051300081113000861
:100040008913000889130008891300088913000820
:100050008913000889130008891300088913000810
:100060008913000889130008891300088913000800
:1000700089130008891300088913000889130008F0
:1000800089130008891300088913000889130008E0
:1000900089130008891300088913000889130008D0
:1000A00089130008891300088913000889130008C0
:1000B00089130008891300088913000889130008B0
:1000C00089130008891300088913000889130008A0
:1000D0008913000889130008891300088913000890
:1000E0008913000889130008891300088913000880
:1000F0008913000889130008891300088913000870
:10010000000000000000000000000000891300084B
:10011000891300088913000889130008891300084F
:10012000891300088913000889130008891300083F
:100130008913000889130008000000000000000077
:1001400089130008891300088913000800000000C3
:10015000000000000000000000000000000000009F
:100160000000000000000000891300088913000847
:1001700089130008000000000000000000000000DB
:080180000000000089130008D3
:10018800B0F1904F08B51BD02B4B984224D02B4B85
:1001980098422DD02A4B984236D02A4B98423FD0CD
:1001A800294B984200D008BD4FF48000012100F08F
:1001B80093FB4FF480000021BDE8084000F08CBBA1
:1001C8004FF40030012100F087FB4FF4003000218C
:1001D800BDE8084000F080BB4FF48020012100F00A
:1001E8007BFB4FF480200021BDE8084000F074BB81
:1001F8004FF40020012100F06FFB4FF40020002194
:10020800BDE8084000F068BB4FF48010012100F001
:1002180063FB4FF480100021BDE8084000F05CBB90
:100228004FF40010012100F057FB4FF4001000219B
:10023800BDE8084000F050BB000400480008004832
:10024800000C0048001000480014004800222DE966
:10025800F00F13460E6801274FF0030804E001333E
:10026800102B02F1020229D007FA03F404EA06056A
:10027800A542F4D10C7904F1FF3CBCF1010F08FA56
:1002880002FC1ED96FEA0C0C056891F807900CEA7D
:1002980005050560056894402C430460C46808FAA5
:1002A80002F524EA0504C460C56809FA02F40133BA
:1002B8002C43102BC46002F10202D5D1BDE8F00F27
:1002C8007047D0F808B091F8059091F806A06FEA49
:1002D8000C0C0CEA0B0BC0F808B0D0F808B009FAFF
:1002E80002F949EA0B09C0F80890B0F804901FFA1F
:1002F80089F929EA05058580B0F804900AFA03F51A
:1003080045EA0905ADB28580BEE700BF00234FF678
:10031800FF7101220160427103718371C3717047DB
:1003280041F48033C361C161C361C369C369704764
:10033800038A19420CBF002001207047008A80B24E
:10034800704700BF838A19420CBF00200120704704
:10035800808A80B2704700BF81617047018570470D
:100368000AB9018570478161704700BF8182704773
:10037800CB0800EB830001F0070110B48900046A80
:100388000F238B4024EA03030362036A5DF8044BDE
:100398008A40134303627047114B12491868124A86
:1003A80040F001001860586801405960196821F050
:1003B800847121F480311960196821F48021196051
:1003C800596821F4FE015960D96A21F47F5121F05E
:1003D8003F01D962186B002102401A639960704787
:1003E8000010024000C0FFF8CCFC000F024B0022B6
:1003F8001A701870704700BF02100240034B1A6849
:1004080022F0F80242EAC00018607047001002406B
:10041800014B1860704700BF00004242064B1A6A41
:1004280022F001021A621A6A22F004021A621A6A97
:1004380010431862704700BF00100240044B1A6A4C
:1004480022F018021A621A6A10431862704700BF35
:1004580000100240014B1860704700BF8004424200
:10046800044B5A6822F474125A605A6811430843BC
:100478005860704700100240014B1860704700BF79
:1004880060004242034BDA6A22F00F021043D8623E
:10049800704700BF00100240014B1860704700BF52
:1004A8004C004242014B1870704700BF07100240D1
:1004B800034B5A6822F0030210435860704700BF8C
:1004C80000100240024B586800F00C00704700BF53
:1004D80000100240034B5A6822F0F00210435860A3
:1004E800704700BF00100240034B5A6822F4E062D4
:1004F80010435860704700BF00100240034B5A6811
:1005080022F4605242EAC00058607047001002406E
:100518009C4A536803F00C03042BF0B402D0082B58
:1005280000F0F180984A026000269649974B4C6883
:10053800C4F303141F5DFFB222FA07F444604D6848
:10054800C5F302255D5D24FA05F58560D1F804C080
:10055800CCF3C22C13F80CC05FFA8CFC24FA0CF410
:10056800C460C96AC1F3041103EB4101098A89B265
:1005780011F0100F1CBFB6FBF1F10161814908BFF2
:100588000261C96AC1F3442103EB41031B8A9BB290
:10059800D90644BFB6FBF3F343617A4B58BF4261B7
:1005A8001B6BD9065CBF784B8361764B48BF826171
:1005B8001B6B9B065CBF744BC361724B48BFC26127
:1005C800196BC9053CD5964202D1BC4500F0D280D2
:1005D80004621B6B44626B4B196B890740F0818086
:1005E8008462684B196B11F4403F65D1C562654B55
:1005F800196B11F4402F4AD10563624B196B11F442
:10060800401F28D145635F4B196B11F4400F3BD055
:10061800196B01F44001B1F5800F00F094801A6B5A
:1006280002F44002B2F5000F00F0A0801B6B03F447
:100638004003B3F5400F01D1534B8363F0BC7047BF
:1006480004621B6B9B05C5D59642C3D1BC45C1D17D
:1006580051004162BFE7196B01F44011B1F5801FE9
:100668006BD0196B01F44011B1F5001F76D01B6BEC
:1006780003F44013B3F5401F04BF434B4363414B9E
:10068800196B11F4400FC3D18563F0BC7047196B27
:1006980001F44021B1F5802F4DD0196B01F44021B0
:1006A800B1F5002F5ED01B6B03F44023B3F5402F48
:1006B80004BF354B0363A0E7196B01F44031B1F572
:1006C800803F34D0196B01F44031B1F5003F3DD083
:1006D8001B6B03F44033B3F5403F04BF2A4BC3629E
:1006E80085E7196B01F00301012922D0196B01F08C
:1006F800030102292ED01B6B03F00303032B04BF55
:10070800214B83626DE751685468C1F38341E30369
:1007180001F1020113D5D66A1B4B06F00F0601360C
:10072800B3FBF6F601FB06F606603246FDE6C2624A
:100738005DE7826255E702635FE7426363E7144E51
:1007480006FB01F6F0E78263F0BC70474FF4004304
:10075800C3624CE74FF40043836242E74FF400431F
:10076800436350E74FF40043036346E74FF4004305
:10077800836363E7510001621B6B9E053FF569AF18
:1007880028E700BF0010024000127A000000002095
:1007980000093D00030F064BDA6A14BF22F47852B1
:1007A80022F4F872DA62024BDA6A1043D8627047B0
:1007B80000100240030F064B1A6B14BF22F02002F0
:1007C80022F010021A63024B1A6B10431863704729
:1007D80000100240030F064B1A6B14BF22F400727C
:1007E80022F480721A63024B1A6B10431863704725
:1007F80000100240030F013B042B09D8DFE803F087
:100808000313191F0D00114B1A6B22F003021A6310
:100818000E4B1A6B1043186370470C4B1A6B22F47B
:1008280040021A63F4E7094B1A6B22F440321A6348
:10083800EEE7064B1A6B22F440221A63E8E7034BF3
:100848001A6B22F440121A63E2E700BF001002405C
:10085800014B1860704700BFD8004242024B1A6A29
:1008680010431862704700BF00100240014B186027
:10087800704700BFDC004242014B1860704700BF60
:100888003C044242014B1860704700BF400442429A
:10089800044B5A6919B922EA00005861704710439D
:1008A8005861704700100240044B9A6919B922EA4E
:1008B800000098617047104398617047001002402B
:1008C800044BDA6919B922EA0000D861704710436D
:1008D800D861704700100240044B9A6A19B922EA9D
:1008E80000009862704710439862704700100240F9
:1008F800044BDA6819B922EA0000D860704710433F
:10090800D860704700100240044B1A6919B922EAEE
:1009180000001861704710431861704700100240CA
:10092800044B1A7819B922EA00001870704710436E
:100938001870704709100240430908D10F4B1B6813
:1009480000F01F0023FA00F000F001007047012BAF
:100958000BD0042B094B0CBF5B685B6A00F01F00CF
:1009680023FA00F000F001007047044B1B6A00F006
:100978001F0023FA00F000F0010070470010024049
:1009880000B583B00023019300E048B91120FFF7B8
:10099800D3FF019B01330193019BB3F5A06FF4D101
:1009A8001120FFF7C9FF003018BF012003B05DF820
:1009B80004FB00BF024B5A6A42F080725A627047C9
:1009C80000100240034B9B6818420CBF0020012016
:1009D800704700BF00100240014B1870704700BFFD
:1009E8000A10024008B5264B984218D0254B984269
:1009F80021D0254B98422AD0244B984233D0244BFF
:100A0800984200D008BD4FF480100121FFF77CFF09
:100A18004FF480100021BDE80840FFF775BF4FF480
:100A280080400121FFF764FF4FF480400021BDE8BA
:100A38000840FFF75DBF4FF400300121FFF764FF66
:100A48004FF400300021BDE80840FFF75DBF4FF4C8
:100A580080200121FFF758FF4FF480200021BDE8D6
:100A68000840FFF751BF4FF400200121FFF74CFF6A
:100A78004FF400200021BDE80840FFF745BF00BF44
:100A8800003801400044004000480040004C00404D
:100A9800005000400368F0B504460D4623F00103FA
:100AA8008F68CE68286949686A692360636823F497
:100AB80040533B4363602368314323F4B0530143FD
:100AC80023F00C030B432360A36823F44073134300
:100AD80091B0A36001A8FFF71BFD174B9C4224D0DF
:100AE800164B9C4223D0164B9C4222D0154B9C425D
:100AF8000CBF0E990F9923682A68180448BF49004B
:100B0800B1FBF2F302FB1311B1EB520F226828BFBD
:100B18000133120405D54FF6F0721A40C3F34203AD
:100B280013439BB2A38111B0F0BD0B99E3E70C9975
:100B3800E1E70D99DFE700BF0038014000440040BD
:100B480000480040004C004000234FF416510C228E
:100B58000160026143608360C3604361704700BF06
:100B680030B491E828008C684268C9682B43234355
:100B78000B4322F470621343436030BC704700BFDC
:100B88000023036043608360C3607047036819B93A
:100B980023F001030360704743F0010303607047CB
:100BA80003681AB923EA010101607047194301601B
:100BB800704700BF036819B923F400430360704706
:100BC80043F4004303607047836819B923F4006352
:100BD8008360704743F4006383607047436819B9C2
:100BE80023F400234360704743F4002343607047B5
:100BF800436819B923F480234360704743F4802382
:100C08004360704743681AB923EA0101416070479D
:100C180019434160704700BF436819B923F4004382
:100C28004360704743F4004343607047436819B911
:100C380023F400034360704743F4000343607047A4
:100C4800436903F07F434361436919434161704736
:100C5800038A03F47F430382038A9BB21943018208
:100C6800704700BF036819B923F002030360704797
:100C780043F0020303607047836823F440138360E2
:100C88008368194381607047436819B923F4801356
:100C98004360704743F4801343607047436823F40C
:100CA800C00343604368194341607047C1F30801BA
:100CB80001857047808CC0F308007047436823F0B3
:100CC8007F434360436843EA01614160704700BF66
:100CD800036819B923F400530360704743F40053C1
:100CE80003607047036823F40063036003681943D3
:100CF80001607047436823F0100343604368194359
:100D080041607047436823F02003436043681943F8
:100D180041607047436819B923F4804343607047C2
:100D280043F4804343607047836819B923F008038C
:100D38008360704743F0080383607047038ADBB21F
:100D48000382038A9BB243EA01210182704700BFF4
:100D5800836819B923F020038360704743F02003A8
:100D680083607047836819B923F010038360704764
:100D780043F0100383607047836823F46023836023
:100D8800836843EA41418160704700BF436923F0AB
:100D98007F434361436943EA01614161704700BF92
:100DA800836823F004038360836819438160704774
:100DB800836819B923F002038360704743F0020384
:100DC80083607047836819B923F480438360704750
:100DD80043F4804383607047836823F4004383604F
:100DE8008368194381607047036823F07873036050
:100DF800036843EA41510160704700BF036823F468
:100E0800F8130360036843EA01410160704700BFBB
:100E180083681AB923EA0101816070471943816028
:100E2800704700BF836823F40053836083681943C5
:100E380081607047CBB2C1F3072110B402294FF08B
:100E4800010404FA03F30FD0032908BF083004682B
:100E58002AB924EA030303605DF8044B704723436F
:100E680003605DF8044B70470430F0E7038B22B948
:100E78009BB223EA010101837047194389B20183B8
:100E8800704700BF836823F48053836083681943E5
:100E980081607047C36919420CBF00200120704768
:100EA8000162704710B4C1F307230124CAB2A342F8
:100EB80004FA02F215D0022B0CBF43688368134072
:100EC800C26953B1090C012303FA01F111420CBFA5
:100ED800002001205DF8044B704718465DF8044B6C
:100EE800704703681340EBE7090C012303FA01F18B
:100EF8000162704770B50F4E0F4D761BB61007D0C4
:100F0800043D0024013455F8043F9847A642F9D11E
:100F18000A4E0B4D761B00F037FAB61008D0043D88
:100F28000024013455F8043F9847A642F9D170BD12
:100F380070BD00BF000000000000000000000000BD
:100F48000000000080B483B000AF03463960FB7135
:100F580097F90730002B0BDA0D49FB7903F00F03E3
:100F6800043B3A68D2B21201D2B20B441A7609E0B5
:100F7800084997F907303A68D2B21201D2B20B4445
:100F880083F800230C37BD465DF8047B704700BF2B
:100F980000ED00E000E100E080B582B000AF7860CD
:100FA8007B68B3F1807F01D3012311E00A4B7A6893
:100FB80022F07F42013A5A604FF0FF300F21FFF7CD
:100FC800C1FF054B00229A60034B07221A600023D9
:100FD80018460837BD4680BD10E000E080B582B0F5
:100FE80000AF0346FB7100BF07488021FFF752FF9F
:100FF8000346002BF8D0FB799BB203481946FFF74C
:1010080055FE0837BD4680BD0038014080B582B026
:1010180000AF786006E07B685A1C7A601B78184637
:10102800FFF7DCFF7B681B78002BF4D10837BD463F
:1010380080BD00BF80B586B000AF334B1A68334B14
:10104800A3FB02139B0C1846FFF7A6FF0346002BD1
:1010580000D0FEE74FF400300121FFF719FC4FF4F0
:1010680080400121FFF720FC4FF090400921072222
:10107800FFF77EF94FF090400A210722FFF778F931
:10108800234B4FF4C0621A60214B03225A71204B44
:1010980002221A711E4B00229A711D4B0122DA712D
:1010A8004FF090401A49FFF7D1F84FF4E1333B6015
:1010B80000237B600023FB600023BB6000237B616F
:1010C8000C233B613B4613481946FFF7E3FC1148E4
:1010D8000121FFF75BFD00BF0E488021FFF7DAFE14
:1010E8000346002BF8D00B484121FFF7DFFD0948E4
:1010F8004221FFF7DBFD0848FFF788FF074800F0AB
:101108000FF800BFE7E700BF2C00002083DE1B4379
:1011180034000020003801408C130008FFFF3F0016
:1011280080B483B000AF78607A68064B1A6000BF5D
:10113800044B1B68002BFBD10C37BD465DF8047BC4
:10114800704700BF3000002080B500AF1E4B1E4A1C
:10115800D2F8882042F47002C3F888201B4B1B4A3F
:10116800126842F001021A60184A184B5968184B65
:101178000B405360154A154B1B6823F0847323F406
:1011880080331360114B114A126822F480221A60CE
:101198000E4B0E4A526822F4FE025A600B4B0B4A61
:1011A800D26A22F00F02DA62084A084B196B094B1F
:1011B8000B401363054B00229A6000F00DF8024BB8
:1011C8004FF000629A6080BD00ED00E00010024020
:1011D8000CC07FF8CCFC00FF80B483B000AF0023C4
:1011E8007B6000233B60324B314A126842F4A022F4
:1011F8001A602F4B1B6803F400333B607B68013394
:101208007B603B68002B03D17B68B3F5A06FF0D1FE
:10121800274B1B6803F40033002B02D001233B60EB
:1012280001E000233B603B68012B3CD1214B12229B
:101238001A601F4B1E4A52685A601D4B1C4A52685E
:101248005A601B4B1A4A526842F480625A60184B23
:10125800174A526822F47C125A60154B144A526895
:1012680042F4E8125A60124B114A126842F0807236
:101278001A6000BF0E4B1B6803F00073002BF9D0F7
:101288000B4B0B4A526822F003025A60084B084A7B
:10129800526842F002025A6000BF054B5B6803F0D7
:1012A8000C03082BF9D10C37BD465DF8047B704759
:1012B800001002400020024080B400AFBD465DF837
:1012C800047B704780B400AFFEE700BF80B400AF76
:1012D800FEE700BF80B400AFFEE700BF80B400AFF8
:1012E800FEE700BF80B400AFBD465DF8047B7047E1
:1012F80080B400AFBD465DF8047B704780B400AF92
:10130800BD465DF8047B704780B400AF064B1B6890
:10131800002B04D0044B1B685A1E034B1A60BD46B1
:101328005DF8047B704700BF30000020002100F00A
:1013380004B80E4B5B58435004310D480D4B42180E
:101348009A42FFF4F6AF0C4A00F003B8002342F8C3
:10135800043B0A4B9A42FFF4F9AFFFF7F5FEFFF79B
:10136800C9FDFFF767FEFFF7FEBF0000A8130008DE
:101378000000002030000020300000203C00002049
:10138800FFF7FEBF0D0A0000F8B500BFF8BC08BCA7
:101398009E467047F8B500BFF8BC08BC9E4670472B
:1013A8000000000001020304010203040607080903
:1013B8000000010002000400060008000A000C00FA
:1013C80010002000400080000001000000A24A0434
:0400000508001335A7
:00000001FF
