:020000040800F2
:1000000000800020D90300082D0400082D040008FA
:100010002D0400082D0400082D0400080000000035
:100020000000000000000000000000002D04000897
:100030002D040008000000002D0400082D04000815
:100040002D0400082D0400082D0400082D040008CC
:100050002D0400082D0400082D0400082D040008BC
:100060002D0400082D0400082D0400082D040008AC
:100070002D0400082D0400082D0400082D0400089C
:100080002D0400082D0400082D0400082D0400088C
:100090002D0400082D0400082D0400082D0400087C
:1000A0002D0400082D0400082D0400082D0400086C
:1000B0002D0400082D0400082D0400082D0400085C
:1000C0002D0400082D0400082D0400082D0400084C
:1000D0002D0400082D0400082D0400082D0400083C
:1000E0002D0400082D0400082D0400082D0400082C
:1000F0002D0400082D0400082D0400082D0400081C
:100100000000000000000000000000002D040008B6
:100110002D0400082D0400082D0400082D040008FB
:100120002D0400082D0400082D0400082D040008EB
:100130002D0400082D04000800000000000000004D
:100140002D0400082D0400082D0400080000000004
:10015000000000000000000000000000000000009F
:1001600000000000000000002D0400082D0400081D
:100170002D04000800000000000000000000000046
:08018000000000002D0400083E
:1001880070B50E4B0E4DED1AAD1000241E46AC4254
:1001980004D056F8242090470134F8E700F044F9D9
:1001A800084D094BED1AAD1000241E46AC4204D090
:1001B80056F8242090470134F8E770BD000000008D
:1001C80000000000000000000000000080B400AF44
:1001D800204B204A526942F400225A611D4B1D4AA5
:1001E800D26942F00202DA611B4B1B4A126842F4E0
:1001F80000321A60184B184A928892B29A80164BAD
:10020800154A92689A60144B134A526A42F00202E5
:100218005A62124B40F257221A85104B4FF416724D
:10022800DA620E4B7822DA630C4B0C4AD26942F040
:100238006002DA61094B094A126A42F480721A6252
:10024800064B064A128892B242F0010292B21A8014
:10025800FEE700BF0010024000080048000400400C
:1002680080B500AF1E4B1E4AD2F8882042F47002B7
:10027800C3F888201B4B1B4A126842F001021A601F
:10028800184A184B5968184B0B405360154A154BC0
:100298001B6823F0847323F480331360114B114AD5
:1002A800126822F480221A600E4B0E4A526822F419
:1002B800FE025A600B4B0B4AD26A22F00F02DA6236
:1002C800084A084B196B094B0B401363054B002276
:1002D8009A6000F00DF8024B4FF000629A6080BD02
:1002E80000ED00E0001002400CC07FF8CCFC00FFDD
:1002F80080B483B000AF00237B6000233B60324BA7
:10030800314A126842F4A0221A602F4B1B6803F48A
:1003180000333B607B6801337B603B68002B03D173
:100328007B68B3F5A06FF0D1274B1B6803F400334B
:10033800002B02D001233B6001E000233B603B68B7
:10034800012B3CD1214B12221A601F4B1E4A5268C6
:100358005A601D4B1C4A52685A601B4B1A4A526815
:1003680042F480625A60184B174A526822F47C1291
:100378005A60154B144A526842F4E8125A60124BFC
:10038800114A126842F080721A6000BF0E4B1B6857
:1003980003F00073002BF9D00B4B0B4A526822F084
:1003A80003025A60084B084A526842F002025A6037
:1003B80000BF054B5B6803F00C03082BF9D10C3721
:1003C800BD465DF8047B70470010024000200240E3
:1003D800002100F004B80E4B5B58435004310D481F
:1003E8000D4B42189A42FFF4F6AF0C4A00F003B8DE
:1003F800002342F8043B0A4B9A42FFF4F9AFFFF797
:100408002FFFFFF7BDFEFFF7E1FEFFF7FEBF00007D
:100418004804000800000020000000200000002020
:1004280000000020FFF7FEBFF8B500BFF8BC08BC0D
:100438009E467047F8B500BFF8BC08BC9E4670479A
:04000005080003D913
:00000001FF
